:020000040000FA
:100000000C9451060C9482060C9482060C94820681
:100010000C9482060C9482060C9482060C94820640
:100020000C9482060C9482060C9482060C94820630
:100030000C9482060C94D8190C9482060C948206B7
:100040000C9482060C9482060C9482060C94820610
:100050000C9482060C9482060C9482060C948E19E1
:100060000C9482060C94621A0C94381A0C94820632
:100070000C9482060C9482060C9482060C948206E0
:100080000C9482060C9482060C9482060C948206D0
:100090000C9482060C9482060C9482060C94981A96
:1000A0000C9482060C9482060C9482060C948206B0
:1000B0000C9482060C9482060C9482060C948206A0
:1000C0000C9482060C9482060C9482060C94820690
:1000D0000C9482060C9482060C9482060C94820680
:1000E0000C9482060C940C130C949B0A0C94C6136B
:1000F0000C94720B0C94F6090C94D30A0C94D00651
:100100000C94DD0E0C946A0A0C94CC060C94200B13
:100110000C94720F0C9406170C94B0160C94C20633
:100120000C94DE060C947E0E0C9429100C94B106EF
:100130000C94DA060C94F7090C9451100C94D0200E
:100140000C9484060C94A3060C94B9100C947C12A5
:100150000C94E8060C948D0A0C94550F0C94051C15
:100160000C9445100C94E4060C94A9060C94AC0D68
:100170000C94C5120C943D0A0C94AD060C94C80660
:100180000C94B5060C94790A0C94D6060C94B80617
:100190000C94E3060C94BE060C9439102200FF2147
:1001A00000000103070F1F3F7F0080C0E0F0F8FC54
:1001B000FE00000000003E5B4F5B3E3E6B4F6B3E1F
:1001C0001C3E7C3E1C183C7E3C181C577D571C1C5A
:1001D0005E7F5E1C00183C1800FFE7C3E7FF0018B5
:1001E000241800FFE7DBE7FF30483A060E2629799E
:1001F0002926407F050507407F05253F5A3CE73CFF
:100200005A7F3E1C1C08081C1C3E7F14227F2214AF
:100210005F5F005F5F06097F017F006689956A6006
:100220006060606094A2FFA29408047E040810201D
:100230007E201008082A1C08081C2A08081E101016
:1002400010100C1E0C1E0C30383E3830060E3E0EC0
:1002500006000000000000005F000000070007002B
:10026000147F147F14242A7F2A1223130864623611
:10027000495620500008070300001C22410000419D
:10028000221C002A1C7F1C2A08083E0808008070D7
:10029000300008080808080000606000201008040A
:1002A000023E5149453E00427F400072494949465D
:1002B0002141494D331814127F1027454545393CDB
:1002C0004A494931412111090736494949364649C8
:1002D00049291E00001400000040340000000814EA
:1002E0002241141414141400412214080201590963
:1002F000063E415D594E7C1211127C7F49494936B8
:100300003E414141227F4141413E7F494949417F30
:10031000090909013E414151737F0808087F0041E6
:100320007F41002040413F017F081422417F40402F
:1003300040407F021C027F7F0408107F3E41414104
:100340003E7F090909063E4151215E7F0919294670
:10035000264949493203017F01033F4040403F1F86
:100360002040201F3F4038403F63140814630304BB
:100370007804036159494D43007F4141410204081B
:100380001020004141417F040201020440404040EE
:1003900040000307080020545478407F2844443824
:1003A0003844444428384444287F3854545418006E
:1003B000087E090218A4A49C787F080404780044ED
:1003C0007D40002040403D007F1028440000417FD8
:1003D00040007C047804787C080404783844444461
:1003E00038FC1824241818242418FC7C0804040859
:1003F000485454542404043F44243C4040207C1C72
:100400002040201C3C4030403C44281028444C9064
:1004100090907C4464544C440008364100000077BE
:100420000000004136080002010204023C26232697
:100430003C1EA1A161123A4040207A3854545559CB
:100440002155557941225454784221555478402001
:10045000545579400C1E527212395555555939541C
:1004600054545939555454580000457C41000245B4
:100470007D420001457C407D1211127DF028252827
:10048000F07C545545002054547C547C0A097F4923
:1004900032494949323A4444443A324A4848303A67
:1004A0004141217A3A42402078009DA0A07D3D4202
:1004B00042423D3D4040403D3C24FF2424487E498B
:1004C00043662B2FFC2F2BFF0929F620C0887E09BD
:1004D0000320545479410000447D413048484A3259
:1004E000384040227A007A0A0A727D0D19317D2641
:1004F00029292F28262929292630484D4020380827
:1005000008080808080808382F10C8ACBA2F1028A7
:1005100034FA00007B000008142A142222142A1442
:10052000085500550055AA55AA55AAFF55FF55FF75
:10053000000000FF00101010FF00141414FF001042
:1005400010FF00FF1010F010F0141414FC0014142D
:10055000F700FF0000FF00FF1414F404FC1414174C
:10056000101F10101F101F1414141F00101010F073
:10057000000000001F101010101F10101010F010BD
:10058000000000FF101010101010101010FF1000CD
:100590000000FF140000FF00FF00001F1017000004
:1005A000FC04F414141710171414F404F40000FFDE
:1005B00000F714141414141414F700F71414141777
:1005C0001410101F101F141414F4141010F010F055
:1005D00000001F101F0000001F14000000FC14008A
:1005E00000F010F01010FF10FF141414FF1410107E
:1005F000101F00000000F010FFFFFFFFFFF0F0F001
:10060000F0F0FFFFFF0000000000FFFF0F0F0F0FD3
:100610000F3844443844FC4A4A4A347E02020606F3
:10062000027E027E0263554941633844443C0440E3
:100630007E201E2006027E020299A5E7A5991C2AAB
:10064000492A1C4C7201724C304A4D4D303048786A
:100650004830BC625A463D3E494949007E0101018D
:100660007E2A2A2A2A2A44445F444440514A44406C
:1006700040444A51400000FF0103E080FF000008B1
:10068000086B6B083612362436060F090F06000079
:1006900018180000001010003040FF0101001F0179
:1006A000011E00191D1712003C3C3C3C00000000DC
:1006B00000DB40A4A62EAF2000A1C8D300408DAE21
:1006C000D580A800006000000000000000000000CD
:1006D00000000000E000000000000000000000003A
:1006E000000001E000000000000000000000000029
:1006F0000001F00000000000000000000000000009
:1007000003F00000000000000000000000000007EF
:10071000F00000000000000000000000000007F8EA
:10072000000000000000000000000000000FF800C2
:10073000000003C0007E000001E0007F0FF8000011
:100740000003C000FE000001E000FFEFF800000021
:1007500003C000FE000001E000FFFFF800000003FE
:10076000C000F00000000F007FFE7FC0000003C04B
:1007700000F00000000F003FFE7FF83FF1FBCFFCD0
:10078000FEF3BC3DEFE01FFE7FFF7FFBFFDFFEFEC1
:10079000FFBC3DEFE01FC6FFFF7FFBFFDFFEFEFF5C
:1007A000BC3DEFE00FE3C7FE787BC3DE1EF0FFBC6D
:1007B0003DEF0007FF87FC787BC3DE1EF0F83C3D71
:1007C000EF0001FFFFF0007BC3C01EF0F03C3DEFE7
:1007D0000001F37FE03FFBC3CFFEF0F03C3DEF00B4
:1007E00003E33F807FFBC3DFFEF0F03C3DEF0007FB
:1007F000E73C00787BC3DE1EF0F03C3DEF0007FFD6
:10080000BE00787BC3DE1EF0F03C3DEF0007FFFE2C
:1008100000787BC3DE1EF0F03C3DEF000FFFFE00D2
:100820007FFBFFDFFEF0F03FFDEFE00FFFFF007FFB
:10083000FBFFDFFEF0F03FFDEFE00FF9FF003E7938
:10084000F9CF9EF0F01F3DE7E01FF1FF0000000030
:1008500000000000000000001F80FF007FFFFFFF7E
:10086000FFFFFFFFFFFFE01C007F007FFFFFFFFE99
:10087000B46D888D18E000001F007FFFFFFFFE951C
:10088000AD7DB577E000000F007FFFFFFFFEA5AD57
:100890009D8D19E0000006007FFFFFFFFEB5ADED66
:1008A000B57EE000000000000180000000000000B4
:1008B000000000038000000000000000000007C0EE
:1008C00000000000000000000007C0000000000061
:1008D000000000000FC00000000000000000001F2A
:1008E000E00000000000000000001FE00000000029
:1008F00000000000003FE0000000000000000000D9
:100900003FF00000000000000000007FF000000049
:10091000000000001FF87FF0000000000000003F12
:10092000FE7FF0000000000000003FFF7FF00000AD
:1009300000000000001FFFFBE000000000000000BE
:100940000FFFF9FFC00000000000000FFFF9FFF8E3
:1009500000000000000007FFF1FFFF0000000000A2
:100960000003FC73FFFF80000000000001FE3FFF5A
:10097000FF80000000000000FF1E0FFF00000000CD
:100980000000007FFE1FFC000000000000003FFF91
:10099000FFF8000000000000000FDFFFE000000093
:1009A000000000001F19FFC0000000000000003F11
:1009B0003CFF00000000000000007E7CF80000000A
:1009C00000000000007FFE7C00000000000000002E
:1009D000FFFFFC0000000000000000FFFFFE000021
:1009E000000000000000FFFFFE000000000000000B
:1009F00001FFEFFE0000000000000001FFCFFE003D
:100A000000000000000003FF07FE000000000000DF
:100A10000003FC07FE0000000000000003F003FEDE
:100A200000000000000000018000FE000000000047
:100A300000000000007E0000000000000000000038
:100A40003E000000000000000000000C000000005C
:100A50000000078000FC000003C0000000078001C8
:100A6000FC000003C0000000078001FC000003C080
:100A7000000000078001E00000001E000000078069
:100A800001E00000001E007FE3F79FF9FDE7787B9F
:100A9000DFC0FFF7FFBFFDFDFF787BDFC0FFF7FF83
:100AA000BFFDFDFF787BDFC0F0F787BC3DE1FF783D
:100AB0007BDE00F0F787BC3DE1F0787BDE0000F7DD
:100AC00087803DE1E0787BDE007FF7879FFDE1E0F6
:100AD000787BDE00FFF787BFFDE1E0787BDE00F08A
:100AE000F787BC3DE1E0787BDE00F0F787BC3DE1B5
:100AF000E0787BDE00F0F787BC3DE1E0787BDE004C
:100B0000FFF7FFBFFDE1E07FFBDFC0FFF7FFBFFDA9
:100B1000E1E07FFBDFC07CF3F39F3DE1E03E7BCF74
:100B2000C00000000000000000000000FFFFFFFF09
:100B3000FFFFFFFFFFFFC0FFFFFFFFFD68DB111A94
:100B400031C0FFFFFFFFFD2B5AFB6AEFC0FFFFFF25
:100B5000FFFD4B5B3B1A33C0FFFFFFFFFD6B5BDB11
:100B60006AFDC05353443133303620616C6C6F637F
:100B70006174696F6E206661696C656400000021B4
:100B800000240027002A002D00300033000101005E
:100B900000040107010A01000020002300260029AB
:100BA000002C002F003200000100000301060109A3
:100BB0000100000A0B02090C0D0E080703040100D6
:100BC0000000000000000000000000000000000025
:100BD00000000000000000000000000000121110E2
:100BE0000000000000000000000000000000000005
:100BF0000000000000000001021020200808102062
:100C00004010204080020102010804020101020498
:100C10000810204080804020100804020180040257
:100C200001804020100804020108040201010204AE
:100C3000081020408001020408102040800000229B
:100C400000250028002B002E003100340002010096
:100C500000050108010B0105050505070508080841
:100C600008020202020A0A0808040404040101013D
:100C70000101010101030303030303030304070745
:100C8000070C0C0C0C0C0C0C0C02020202060606E3
:100C900006060606060B0B0B0B0B0B0B0B02051CBB
:100CA000D02011241FBECFEFD1E2DEBFCDBF00E0C8
:100CB0000CBF24E0A8E7B2E001C01D92AC35B2073A
:100CC000E1F712E0A0E0B2E0E8EDF6E400E00BBFEF
:100CD00002C007900D92A837B107D9F716E0C0E51A
:100CE000D6E000E006C021970109802FFE010E9496
:100CF0003021CF34D10780E00807A9F70E94921C69
:100D00000C945A230C94000008958150823108F00D
:100D10005AC0E82FF0E08827EF56F94F8F4F0C9418
:100D20003021B106B506A306A906AD06E306B8064E
:100D3000BE06C206C806CC06D006D606DA06E3060C
:100D4000DE06E406E806809180008F7780938000BD
:100D50000895809180008F7DF9CF80918000877FFA
:100D6000F5CF84B58F7784BD089584B58F7DFBCF93
:100D70008091B0008F778093B00008958091B0008B
:100D80008F7DF9CF809190008F77809390000895A8
:100D9000809190008F7DF9CF80919000877FF5CF73
:100DA0008091A0008F778093A00008958091A0008B
:100DB0008F7DF9CF8091A000877FF5CF80912001B2
:100DC0008F77809320010895809120018F7DF9CF46
:100DD00080912001877FF5CFCF93DF93282F30E0DC
:100DE000F901EF54F44F8491F901E950F44FD49193
:100DF000F901E95AF34FC491CC23A1F081110E946B
:100E00008506EC2FF0E0EE0FFF1FE956F44FA59199
:100E1000B491EC91ED2381E090E009F480E0DF9162
:100E2000CF91089580E090E0FACF1F93CF93DF93A6
:100E3000282F30E0F901EF54F44F8491F901E95083
:100E4000F44FD491F901E95AF34FC491CC23A9F09E
:100E5000162F81110E948506EC2FF0E0EE0FFF1F88
:100E6000E35CF34FA591B4918FB7F894EC91111115
:100E700008C0D095DE23DC938FBFDF91CF911F9107
:100E80000895DE2BF8CFCF93DF9390E0FC01E9507B
:100E9000F44F2491895A934FFC0184918823D1F017
:100EA00090E0880F991FFC01E358F44FA591B4918D
:100EB000FC01E35CF34FC591D49161110EC09FB763
:100EC000F8948C91E22FE0958E238C932881E22375
:100ED000E8839FBFDF91CF9108958FB7F894EC918D
:100EE000E22BEC938FBFF6CFCF92DF92EF92FF927F
:100EF000CF936C0180910002883049F08F3F09F454
:100F000069C0CF91FF90EF90DF90CF900895EDE909
:100F1000FCE0C491C7FDF5CF61E088E00E94430783
:100F2000F12CE12CCC23D1F0960150E040E0C2300E
:100F300009F024C17A0160E970ED83E090E00E943D
:100F40001121BA01A901415051096109710983E0D8
:100F50004F3F51056105710559F154F168E478EE90
:100F600081E090E0A70196010E941121BA01A90138
:100F70004150510961097109CC2309F4B4C1C2304F
:100F800009F0A8C14F3F51056105710509F00CF446
:100F9000A8C164E274EF80E090E0A70196010E948E
:100FA0001121BA01A901415051096109710985E076
:100FB0009091B100987F892B8093B100C23009F4E1
:100FC00065C10CF05CC1CC2309F4A7C1C13009F0A4
:100FD00098CFE8C088E080930002EDE9FCE0C4917E
:100FE0008C2FCF3F09F48DCFC23009F468C060F474
:100FF000CC2379F1C13009F444C087FD82CF61E090
:1010000088E00E94430790CFC43009F499C008F4E7
:1010100078C0C53091F71092200110922101809183
:10102000210188608093210180912101816080935A
:101030002101EFE5FCE0E491F0E0EE0FFF1FE35C3F
:10104000F34F85919491EFEFFBE0E491E093480337
:1010500063CF14BC15BC84B5826084BD85B5816046
:1010600085BDEFE5FCE0E491F0E0EE0FFF1FE35CEF
:10107000F34F85919491EFEFFBE0E491E0934F0300
:101080004BCF109280001092810080918100886087
:101090008093810080918100816080938100EFE5E1
:1010A000FCE0E491F0E0EE0FFF1FE35CF34F85916D
:1010B0009491EFEFFBE0E491E0934E032DCF10927B
:1010C000B0001092B1008091B00082608093B000B7
:1010D0008091B10081608093B100EFE5FCE0E49184
:1010E000F0E0EE0FFF1FE35CF34F85919491909336
:1010F0004D0380934C03EFEFFBE0E491E0934B034F
:101100000BCF109290001092910080919100886016
:101110008093910080919100816080939100EFE530
:10112000FCE0E491F0E0EE0FFF1FE35CF34F8591EC
:101130009491EFEFFBE0E491E0934A03C3E0ECCE3F
:101140001092A0001092A1008091A100886080936D
:10115000A1008091A10081608093A100EFE5FCE0F7
:10116000E491F0E0EE0FFF1FE35CF34F8591949163
:10117000EFEFFBE0E491E0934903CECE60E072E153
:101180008AE790E00E941121BA01A901415051095A
:1011900061097109C130D9F480918100887F816033
:1011A0008093810050938900409388008FEF9FEFD8
:1011B000DC018093600390936103A0936203B0937A
:1011C000630380916F00826080936F009ACEC3307A
:1011D000D9F480919100887F816080939100509331
:1011E0009900409398008FEF9FEFDC0180935803A4
:1011F00090935903A0935A03B0935B0380917100BD
:101200008260809371007DCEC430D9F48091A100BA
:10121000887F81608093A1005093A9004093A8002B
:101220008FEF9FEFDC018093540390935503A093BD
:101230005603B093570380917200826080937200CE
:1012400060CEC53009F0BACE80912101887F8160DF
:101250008093210150932901409328018FEF9FEF44
:10126000DC018093500390935103A0935203B093F9
:1012700053038091730082608093730042CEC43028
:1012800059F20CF4ACCFC53029F33BCE4093B300F8
:101290008FEF9FEFDC0180935C0390935D03A0933D
:1012A0005E03B0935F038091700082608093700052
:1012B00028CE62E17AE780E090E0A70196010E94E3
:1012C0001121BA01A9014150510961097109C1E017
:1012D00086E06ECE4F3F51056105710509F04CF770
:1012E000C1E084E065CE93E04F3F51056105710593
:1012F00081F07CF062E17AE780E090E0A70196015E
:101300000E941121BA01A9014150510961097109D5
:1013100094E085B5887F892B85BD47BD8FEF9FEF12
:10132000DC018093640390936503A0936603B093FC
:10133000670380916E00826080936E00E2CD3FB7BC
:10134000F8948091440390914503A0914603B09195
:10135000470326B5A89B05C02F3F19F00196A11D94
:10136000B11D3FBFBA2FA92F982F8827BC01CD01EF
:10137000620F711D811D911D42E0660F771F881F4E
:10138000991F4A95D1F708958F929F92AF92BF927D
:10139000CF92DF92EF92FF924B015C010E949F0976
:1013A0006B017C010E949F096C197D098E099F09C0
:1013B000683E734081059105A8F321E0821A9108E7
:1013C000A108B10888EEC80E83E0D81EE11CF11C0C
:1013D00081149104A104B10429F7FF90EF90DF90EC
:1013E000CF90BF90AF909F908F90089508950895EB
:1013F0009091000289130DC0EDE9FCE0E4919FEFAC
:1014000090930002E230E1F038F4EE2381F0E13015
:1014100089F060E00C941507E43049F110F1E530F3
:10142000C1F7909173009D7F90937300F2CF10925B
:101430006E00EFCF90916F009D7F90936F00E9CF8A
:10144000909170009D7F9093700091E09093B00018
:101450009091B100987F94609093B1001092B30086
:10146000D8CF909171009D7F90937100D2CF9091D1
:1014700072009D7F90937200CCCFAF92BF92CF92BB
:10148000DF92EF92FF920F931F93CF93DF936C0144
:101490007B018B01040F151FEB015E01AE18BF0825
:1014A000C017D10759F06991D601ED91FC910190D7
:1014B000F081E02DC6011995892B79F7C501DF91DF
:1014C000CF911F910F91FF90EF90DF90CF90BF9041
:1014D000AF900895FC01538D448D252F30E0842F6B
:1014E00090E0821B930B541710F0CF96089501974C
:1014F0000895FC01918D828D981761F0A28DAE0F39
:10150000BF2FB11D5D968C91928D9F5F9F73928FBF
:1015100090E008958FEF9FEF0895FC01918D828DEB
:10152000981731F0828DE80FF11D858D90E00895B8
:101530008FEF9FEF0895FC01918D228D892F90E010
:10154000805C9F4F821B91098F73992708958CE6C9
:1015500093E00E949B0A21E0892B09F420E0822F6E
:101560000895FC01A48DA80FB92FB11DA35ABF4F38
:101570002C91848D90E001968F739927848FA68992
:10158000B7892C93A089B1898C91837080648C93E6
:10159000938D848D981306C00288F389E02D808195
:1015A0008F7D80830895EF92FF920F931F93CF93C7
:1015B000DF93EC0181E0888F9B8D8C8D98131AC08E
:1015C000E889F989808185FF15C09FB7F894EE8975
:1015D000FF896083E889F9898081837080648083D2
:1015E0009FBF81E090E0DF91CF911F910F91FF901D
:1015F000EF900895F62E0B8D10E00F5F1F4F0F73C5
:101600001127E02E8C8D8E110CC00FB607FCFACF7F
:10161000E889F989808185FFF5CFCE010E94B10A62
:10162000F1CFEB8DEC0FFD2FF11DE35AFF4FF08250
:101630009FB7F8940B8FEA89FB8980818062CFCFB6
:10164000CF93DF93EC01888D8823B9F0AA89BB89F9
:10165000E889F9898C9185FD03C0808186FD0DC0E4
:101660000FB607FCF7CF8C9185FFF2CF808185FF05
:10167000EDCFCE010E94B10AE9CFDF91CF9108955D
:1016800080E090E0892B29F00E94A70A81110E9436
:10169000000080E090E0892B49F080E090E0892B09
:1016A00029F00E94000081110E94000080E090E07B
:1016B000892B49F080E090E0892B29F00E940000FE
:1016C00081110E94000080E090E0892B49F080E0C9
:1016D00090E0892B29F00E94000081110C940000F9
:1016E00008950895FC016370668B8481958126813D
:1016F0003781613039F0633029F0918780873387F3
:1017000022870895318720879387828708952F92B3
:101710003F924F925F926F927F928F929F92AF9281
:10172000BF92CF92DF92EF92FF920F931F93CF93CE
:10173000DF93CDB7DEB76A970FB6F894DEBF0FBE62
:10174000CDBF9A8F898F7A8369834A01D22E1887F9
:101750000F833701BC2CDC0159962D913C915A978F
:101760002115310509F015C118968D919C91199795
:10177000681779070CF0D7C11A968D919C9148177C
:1017800059070CF0D0C14C2C512CB6E0CB9E600D0B
:10179000711D11247C876B87161617060CF0C3C1C8
:1017A000EA2DF0E0FA87E98793E0EE0FFF1F9A95A4
:1017B000E1F7F88BEF87CF01840F951F18161906F4
:1017C0000CF0B1C1A98DBA8D58968C91811104C0CD
:1017D000BFEABD1508F4D394A98DBA8DED91FC91A3
:1017E00011970284F385E02DCD011995B5E0DB9EBC
:1017F000C0011124E981FA81FC83EB83312C212C77
:101800009C012F543E4F388F2F8B4A2D50E05E8B1A
:101810004D8BEF89F88DE20DF31D44919E828D82F0
:10182000D12CC12C69817A81620D731D7A8B698BF1
:10183000842F90E09C8B8B8BE98DFA8DA081B181F8
:1018400040FF82C0F1E0BF126FC0AF126DC01C96A6
:10185000ED91FC912F813885A4014C0D5D1D6989A6
:101860007A89898D9A8D1995EB89FC89F595E7958B
:101870004E2F5FEFC51AD50A6D817E818D899E89B5
:10188000680F791F7E836D8398E0C916D10481F6B5
:10189000AFEF2A1A3A0AEB81FC81E40DF51DFC83B7
:1018A000EB83F5E02F16310409F0B3CF2F81388593
:1018B00026153705B9F0A98DBA8DED91FC91B1E0EF
:1018C000BB1257C0AB1255C069817A816B5F7F4FE5
:1018D0000088F189E02D830128E030E0A401898DA2
:1018E0009A8D1995A98DBA8DED91FC911197068865
:1018F000F789E02DCD016A960FB6F894DEBF0FBED2
:10190000CDBFDF91CF911F910F91FF90EF90DF90AE
:10191000CF90BF90AF909F908F907F906F905F908F
:101920004F903F902F9019941E96ED91FC91EF806F
:10193000F88409851A8592014D815E816B817C81D5
:10194000898D9A8D199590CF2F8138852615370569
:1019500009F48ACF31E0B31207C0A31205C01C9668
:10196000ED91FC91930178CF1E96ED91FC9173015E
:10197000E0CF6B857C85641975090684F785E02DB9
:1019800073010F8518899201A401898D9A8D19958B
:10199000A9CFF90134969491329745915491D91A6F
:1019A000B7E0DB9E400D511D1124F90125913491C2
:1019B0003C8B2B8BFA0125903490FA01329674906F
:1019C00031963491398B329664903196449041E04F
:1019D0004C1518F04A1508F07FC0662D062C000C37
:1019E000770B7C836B83842D042C000C990B9E83D6
:1019F0008D83A98DBA8DED91FC9111970284F385A9
:101A0000E02DCD011995512CD12CC12CEA2DF0E0FF
:101A1000FA87E9872B2D30E03C872B87A401440D02
:101A2000511D47FC5A95588F4F8B69817A81660DFD
:101A3000711D67FC7A957E876D877989C71608F0D6
:101A400051CF2C2D30E04D815E81420F531FA9856F
:101A5000BA854A9FC0014B9F900D5A9F900D11244B
:101A6000FC01E80DF91DF88BEF87852D612C4F895E
:101A7000588D420F531F5E8B4D8B671408F050C07A
:101A800044244394480E877041F4C1010196EB89C8
:101A9000FC89E20DF31DD4901C01D7FE19C0A98D5D
:101AA000BA8DED91FC91662D70E0B1E0BB1219C0CA
:101AB000AB1217C02D853E85620F731F0484F58518
:101AC000E02D2F8138854D895E89898D9A8D1995F4
:101AD000DD0C6394842DD1CF1E821D821C821B825B
:101AE00088CF4B815C81640F751FAB85BC856A9F75
:101AF000C0016B9F900D7A9F900D112469817A81AE
:101B0000680F791F0684F785E02DEF80F88409853A
:101B10001A859D014F855889898D9A8D1995D8CF41
:101B2000570CC3948ACF6A960FB6F894DEBF0FBEE7
:101B3000CDBFDF91CF911F910F91FF90EF90DF907C
:101B4000CF90BF90AF909F908F907F906F905F905D
:101B50004F903F902F9008958F929F92AF92CF9287
:101B6000EF92FF920F931F93CF93DF93EC01262FF9
:101B7000898D9A8D009709F051C06A30D1F41D8685
:101B80001C868D8948E0849F900111248E859F8555
:101B9000820F931F9F878E8781E090E0DF91CF9126
:101BA0001F910F91FF90EF90CF90AF909F908F90EB
:101BB00008956D3089F3CC88AD888F898823C1F072
:101BC0008C859D8536E0C39E800D911D112448852E
:101BD00059854817590764F44E855F851D861C8614
:101BE00038E0A39EC0011124840F951F9F878E8724
:101BF000EA88FB88088919894E855F856C857D8513
:101C0000CE010E94870B2C898C859D8546E0249F00
:101C1000800D911D11249D878C87BECF6A3069F499
:101C20001D861C86FC013896E4912D898E859F8542
:101C3000E29F800D911D1124ADCF6D3009F4ACCF22
:101C4000FC0134963491631708F4A6CF3296E491E0
:101C5000E61708F4A1CFFC01329685909490462FA8
:101C6000431B342F47E0349F800C911C1124F40156
:101C7000329634913196E4913323A9F1EE2399F110
:101C8000CC88F4013596E491AD884F89442301F165
:101C90000E2E000CFF0BE30FF11DCE9EA001CF9E78
:101CA000500D11246C857D85460F571F68857985F9
:101CB000641775076CF44E855F851D861C86FC01D4
:101CC0003896E491AE9E400D511D11245F874E87DA
:101CD000EA88FB88088919894E855F856C857D8532
:101CE000CE010E94870BF4013496E4912C898C85F7
:101CF0009D85E29F800D911D11248DCF6F927F9263
:101D00008F929F92AF92BF92CF92DF92EF92FF920B
:101D10000F931F93CF93DF93EC016B015A013901AD
:101D20004801E881F9810284F385E02D1995E88165
:101D3000F9810288F389E02D87019301A501B6019D
:101D4000CE011995A501480D591D41505109E88151
:101D5000F9810288F389E02D9301B601CE0119952E
:101D6000E881F9810088F189E02D9401A501B6018F
:101D7000CE011995C60CD71CB60161507109E881D6
:101D8000F9810088F189E02D9401A501CE01199512
:101D9000E881F9810688F789E02DCE01DF91CF91A6
:101DA0001F910F91FF90EF90DF90CF90BF90AF9079
:101DB0009F908F907F906F9019946F927F928F92E7
:101DC0009F92AF92BF92CF92DF92EF92FF920F93CA
:101DD0001F93CF93DF935C01EB016A014901380146
:101DE0008701DC01ED91FC916217730719F5641608
:101DF00075062CF0962D872D3A01C92ED82E960106
:101E0000261937092F5F3F4F048CF58DE02DA30174
:101E1000BE01C5011995DF91CF911F910F91FF90E0
:101E2000EF90DF90CF90BF90AF909F908F907F907A
:101E30006F9008954615570591F42617370724F03B
:101E4000892D4B01C22FD82F9E01281939092F5FE8
:101E50003F4F068CF78DE02DA601B401DACF028446
:101E6000F385E02D1995D501ED91FC910488F58954
:101E7000E02D83019401A601BE01C5011995D5018C
:101E8000ED91FC910688F789E02DC501DF91CF9196
:101E90001F910F91FF90EF90DF90CF90BF90AF9088
:101EA0009F908F907F906F901994EF92FF920F9375
:101EB0001F93DC011A960D911C911B9718962D917A
:101EC0003C911997ED91FC9100A0F1A1E02D7B01CF
:101ED00050E040E070E060E019951F910F91FF9095
:101EE000EF9008954F925F926F927F928F929F92A0
:101EF000AF92BF92CF92DF92EF92FF920F931F9318
:101F0000CF93DF936C012B015A0139014801DC01A9
:101F1000ED91FC910284F385E02D1995E201640CAA
:101F2000751CD601ED91FC91C615D7055CF40088AF
:101F3000F189E02D87019401A501BE01C601199523
:101F40002196EFCF0688F789E02DC601DF91CF916A
:101F50001F910F91FF90EF90DF90CF90BF90AF90C7
:101F60009F908F907F906F905F904F9019948F9279
:101F70009F92AF92BF92CF92DF92EF92FF920F9318
:101F80001F93CF93DF93EC015B014A016901E88164
:101F9000F9810284F385E02D199595012C0D3D1DE5
:101FA00021503109E881F9810488F589E02D780113
:101FB0008401A401B501CE011995E881F981068853
:101FC000F789E02DCE01DF91CF911F910F91FF9006
:101FD000EF90DF90CF90BF90AF909F908F9019942B
:101FE0008F929F92AF92BF92CF92DF92EF92FF9229
:101FF0000F931F93CF93DF93EC015B014A016901BB
:102000007801E881F9810284F385E02D1995C80CE7
:10201000D91C860101501109E881F9810488F589EC
:10202000E02D9501A401B501CE011995E881F98152
:102030000688F789E02DCE01DF91CF911F910F9196
:10204000FF90EF90DF90CF90BF90AF909F908F90D8
:102050001994EF92FF920F931F93DC01ED91FC9185
:1020600000A0F1A1E02D19951F910F91FF90EF9025
:1020700008950F931F93DC01ED91FC91068CF78D71
:10208000E02D19951F910F9108950F931F93DC0177
:10209000ED91FC91048CF58DE02D19951F910F9118
:1020A0000895DC01ED91FC910084F185E02D1994F7
:1020B0003F924F925F926F927F928F929F92AF92D8
:1020C000BF92CF92DF92EF92FF920F931F93CF9325
:1020D000DF935C017B014A016901390187E0680EE9
:1020E000711C93E0759467949A95E1F72B01400E6B
:1020F000511E10E000E0312CD0E0C0E0CE0187702E
:102100009927330C892B59F4FE0183E0F595E79567
:102110008A95E1F7E00FF11FE80DF91D349037FEC5
:102120000AC021E030E0A701B5016C0F7D1F88E1F6
:1021300094E00E9451102196CC16DD06F9F68FEF3F
:10214000E81AF80A060D171DE414F504A9F6DF9144
:10215000CF911F910F91FF90EF90DF90CF90BF90A4
:10216000AF909F908F907F906F905F904F903F9037
:1021700008952F923F924F925F926F927F928F922B
:102180009F92AF92BF92CF92DF92EF92FF920F9306
:102190001F93CF93DF9300D000D0CDB7DEB73C01C3
:1021A0006A013E832D83FC82EB825801A41AB50A92
:1021B000B7FE03C0B194A194B1088D809E80861AA9
:1021C000970A97FE03C09194819491088A149B0406
:1021D0005CF0902F812F0D811E819D838E839C2D1D
:1021E0008D2D6B01692F782F0C151D055CF09D81DD
:1021F0008E817E836D83692F782F902F812F8601AA
:10220000C92ED82E1601201A310A2B012D813E81AC
:10221000421A530A57FE03C0519441945108710168
:1022200037FE03C03FEFE31AF30AF594E7948D817C
:102230009E81861797075CF5A1E0B0E0BA83A98379
:10224000C016D1064CF1D301ED91FC910484F585C3
:10225000E02D2B813C81A8016D817E818A149B0435
:102260001CF04D815E81B801C3011995E418F50891
:10227000F7FE0AC02D813E8189819A81280F391F7E
:102280003E832D83E20CF31C0F5F1F4FD9CF2FEF3E
:102290003FEF3A832983D4CF26960FB6F894DEBF5A
:1022A0000FBECDBFDF91CF911F910F91FF90EF90A7
:1022B000DF90CF90BF90AF909F908F907F906F9066
:1022C0005F904F903F902F900895EF92FF920F9361
:1022D0001F93CF93DF93EC01EC80FD806E157F059B
:1022E0000CF070C057FF04C0240F351F50E040E0D1
:1022F0008E819F81FA01E20FF31F8E179F071CF456
:102300009C01241B350B121613060CF05BC0922F98
:10231000842F8695869586958E9DD0018F9DB00DD4
:1023200011246A0F7B1FAF8DB8A1A60FB71F47708E
:1023300049F188E0841B482F682F70E0FB01E755C6
:10234000FE4FE491281708F063C0621B71092FEF5C
:1023500030E002C0359527956A95E2F7E223013017
:10236000110539F0B0F10230110561F58C91E827C3
:1023700002C08C91E82BEC93941720F12C813D81C5
:10238000A20FB31FE92FE41BE83078F002301105EB
:1023900021F58E2F9C9190959C932C813D81A20FCD
:1023A000B31F88508830B0F7E770EE2359F0F0E0A3
:1023B000EF55FE4FE49101301105F9F010F10230B4
:1023C000110519F1DF91CF911F910F91FF90EF90BF
:1023D0000895E0958C91E823CECF81E00115110599
:1023E00009F480E081959E2F8C932C813D81A20F72
:1023F000B31F98509830C0F7D7CF8C91E82BEC934F
:10240000E1CFE0958C91E823FACF8C91E827F7CFC4
:102410000130110509F4ADCFE0F20230110509F4E5
:10242000A5CFAE0DBF1DAECF0F931F93CF93DF93FC
:1024300077FF04C0260F371F70E060E0DC011496C0
:10244000CD91DC91FB01E20FF31FCE17DF071CF4E7
:102450009E01261B370B121613064CF5FA0157FD89
:102460003796A3E0F595E795AA95E1F7EC9FD001A3
:10247000ED9FB00DFC9FB00D11246A0F7B1FDC0196
:102480005F96ED91FC91E60FF71F4770552781E0AD
:1024900090E001C0880F4A95EAF7482F01301105F6
:1024A00059F0A8F02E0F3F1F02301105E1F0DF9127
:1024B000CF911F910F9108952E0F3F1FE217F30741
:1024C000B1F38191DF011197842B8C93F7CF809525
:1024D0002E0F3F1FE217F30751F39191DF01119780
:1024E00098239C93F7CFE217F30709F38191DF015B
:1024F000119784278C93F7CF0F931F93FA01DC0178
:1025000056964C9156974230E9F04330A1F1413054
:1025100061F514964D915C91DA01AE1BBF0BFD0184
:10252000E21BF30B77FD0BC0DC0116964D915C911D
:102530006417750724F4AB01BF010E9414121F91A8
:102540000F91089514964D915C91DA01A61BB70B7B
:10255000BD0161507109DC0116964D915C91DA0163
:10256000AE1BBF0BFD01E21BF30B77FDE8CFAF0104
:102570000E946511E4CF16964D915C91DA01A61B7D
:10258000B70BBD0161507109CDCF0F931F93FA01B5
:10259000DC0156964C9156974230A9F0433091F1A8
:1025A000413019F514964D915C91DA01AE1BBF0BC9
:1025B000FD013197F7FD04C0AB01BF010E94651119
:1025C0001F910F91089514964D915C91DA01A61B0D
:1025D000B70BBD01DC0116964D915C91DA01AE1B83
:1025E000BF0BFD013197621B730BF7FDE9CFDC01D7
:1025F00016964D915C91E417F50714F7AF010E9410
:102600001412DECF16964D915C91DA01A61BB70B22
:10261000BD01621B730BCECFFC0177FD64C08085CA
:102620009185681779070CF05EC057FD5CC0828504
:102630009385481759070CF056C086898230B1F04F
:10264000833029F1813041F484819581841B950B7D
:10265000AB01BC01615071092130310509F108F469
:1026600043C02230310509F463C008958481958107
:10267000DC01A61BB70BBD016150710986819781F2
:10268000DC01A41BB50BAD0141505109E5CF86819A
:102690009781861B970BBA01AC0141505109DCCFE1
:1026A000CA0157FD0796A3E095958795AA95E1F78E
:1026B000A481B5818A9F90018B9F300D9A9F300D28
:1026C0001124620F731F078CF0A1E02DE60FF71F96
:1026D0004770552721E030E001C0220F4A95EAF704
:1026E0008081822B80830895CA0157FD079633E0CD
:1026F000959587953A95E1F7A481B5818A9F9001D8
:102700008B9F300D9A9F300D1124620F731F078C21
:10271000F0A1E02DE60FF71F4770552781E090E00C
:1027200001C0880F4A95EAF7809590818923DACF16
:10273000CA0157FD079623E0959587952A95E1F7FD
:10274000A481B5818A9F90018B9F300D9A9F300D97
:102750001124620F731F078CF0A1E02DE60FF71F05
:102760004770552721E030E001C0220F4A95EAF773
:1027700080818227B7CF08958EBD00000DB407FE7B
:10278000FDCF8EB508958CBD9DBD0895089520910F
:10279000DE02260F3327331F21323105ECF420915E
:1027A0000203FC0190E080E0243069F082E00895AB
:1027B000A091DE022191AC0142545D4FA40FB52FD0
:1027C000B11D2C930196861798F38091DE02680F55
:1027D0006093DE0280E0089581E008951092020384
:1027E00081E0809304031092030361E084E10E947E
:1027F000150761E085E10E941507E9EBF0E08081B3
:102800008E7F808380818D7F808388E48093B80071
:1028100085E48093BC000895CF93DF9391E090937B
:10282000BD028823B9F0C091B800D091BA00809160
:10283000BC008A7B8093BC0060E084E10E941507A5
:1028400060E085E10E9415070E94EE13D093BA0064
:10285000C093B800DF91CF910895E0912E0380914D
:102860002D03E81730F4F0E0E856FD4F808190E04A
:1028700008958FEF9FEF089590912E0380912D037F
:102880002FEF3FEF981748F4E92FF0E0E856FD4F9F
:10289000208130E09F5F90932E03C90108958091BD
:1028A0002D0390912E03891B990B0895CF92DF92EF
:1028B000EF92FF920F931F93CF93DF937C01CB0195
:1028C0008A0120916B03222389F0EB016B01C40E76
:1028D000D51ECC15DD0569F06991D701ED91FC910C
:1028E0000190F081E02DC7011995F3CF642F0E946C
:1028F000C713C801DF91CF911F910F91FF90EF9007
:10290000DF90CF900895CF93DF931F92CDB7DEB7BE
:10291000698320916B032223F9F020916803203210
:1029200058F021E030E0FC013383228390E080E026
:102930000F90DF91CF91089580916903E82FF0E027
:10294000E858FD4F998190838F5F8093690380934E
:10295000680381E090E0ECCF61E0CE0101960E9437
:10296000C713F7CFCF92DF92EF92FF920F931F938F
:10297000CF93DF93D091680381E0D13208F09CC0FF
:10298000C0916A030E949F096B017C018091020340
:1029900081116CC082E08093020381E08093040384
:1029A0008FEF8093010310922603D0932503A8E7AD
:1029B000B2E0E5E0F3E080E0D8138DC01092270389
:1029C00080912703CC0FC82BC0932703809103036A
:1029D000813009F084C0109203030E949F096B01AB
:1029E0007C01809127038093BB008091B902909174
:1029F000BA02A091BB02B091BC02892B8A2B8B2B0F
:102A0000A1F00E949F090091B9021091BA02209191
:102A1000BB023091BC026C197D098E099F09061713
:102A200017072807390708F442C08091BC0083FDCE
:102A3000D8CF85EC8093BC000E949F096B017C017C
:102A400080910203823009F44CC0809101038F3FD2
:102A500009F469C080910103803209F466C0809155
:102A60000103803309F463C084E026C08091B90279
:102A70009091BA02A091BB02B091BC02892B8A2B23
:102A80008B2B09F483CF0E949F090091B90210910A
:102A9000BA022091BB023091BC026C197D098E09EB
:102AA0009F09061717072807390708F06FCF80918D
:102AB000B8020E940C1485E010926903109268031A
:102AC00010926B03DF91CF911F910F91FF90EF90C8
:102AD000DF90CF9008959D9191938F5F6DCF85EE9C
:102AE000A9CF8091B9029091BA02A091BB02B09196
:102AF000BC02892B8A2B8B2B09F4A2CF0E949F0941
:102B00000091B9021091BA022091BB023091BC022F
:102B10006C197D098E099F090617170728073907C1
:102B200008F08ECFC4CF80E0C7CF82E0C5CF83E06E
:102B3000C3CFEF92FF920F931F93CF93DF937C014C
:102B4000C62F8091350490913604009709F459C03E
:102B50002091390431E030936B0320936A03109283
:102B6000690310926803DC01ED91FC910190F08102
:102B7000E02D60E019958701EE24E394F12CD1E07B
:102B8000C1508091350490913604CF3F91F1B0E26D
:102B9000EB16F104D8F00E94B214809135049091A4
:102BA000360420913904D0936B0320936A0310926A
:102BB000690310926803DC01ED91FC910190F081B2
:102BC000E02D60E01995EE24E394F12C809135041A
:102BD00090913604F8016491DC01ED91FC91019033
:102BE000F081E02D1995BFEFEB1AFB0A0F5F1F4F25
:102BF000C7CFDF91CF911F910F91FF90EF900C9471
:102C0000B214E0914504F0914604908180914B0408
:102C10008095892380838701C15008F438C0F8016A
:102C200084912091330430913404232B29F00E94A5
:102C3000BC130F5F1F4FF0CF28E030E040E8E09179
:102C40004104F091420490914904582F5423D9F043
:102C50005081952B9083E0914304F091440490813E
:102C600050914A04952B9083E0914304F0914404E1
:102C7000508190914A0490959523908346952150D8
:102C80003109E9F6D6CF508190959523E3CFDF91B6
:102C9000CF911F910F91FF90EF9008951F93CF93C5
:102CA000DF93EC018D8D9E8D009721F1162F29A1C8
:102CB00031E030936B0320936A0310926903109202
:102CC0006803DC01ED91FC910190F081E02D60E062
:102CD00019958D8D9E8DDC01ED91FC910190F08117
:102CE000E02D612F19958D8D9E8DDF91CF911F91D4
:102CF0000C94B214ADA5BEA59C918BA98095892397
:102D00008C938B8D9C8D892B31F0862FDF91CF9109
:102D10001F910C94BC1328E030E080E8A9A5BAA567
:102D200099A9462F4823C1F04C91942B9C93ABA5B5
:102D3000BCA59C914AA9942B9C93ABA5BCA54C9196
:102D40009AA9909594239C9386952150310931F747
:102D5000DF91CF911F9108954C9190959423E6CFE8
:102D60001F93CF93DF93EC01162F8D8D9E8D892BB2
:102D7000B1F12DA93EA94FA958AD60E074E284EFEE
:102D800090E00E94EF2020513109410951095695E8
:102D90004795379527952093B80066EA111167EAA1
:102DA000CE010E944E168D8D9E8D892B41F129AD4D
:102DB0003AAD4BAD5CAD60E074E284EF90E00E9410
:102DC000EF20205131094109510956954795379512
:102DD00027952093B800DF91CF911F9108958B8D97
:102DE0009C8D892B21F08EAD9FAD0E94C313EFA562
:102DF000F8A990818CA9809589238083CECFEFA5F7
:102E0000F8A980819CA9892B8083E5CF90E080E0A0
:102E1000089520911E0430911F04C901079697FD63
:102E2000079623E0959587952A95E1F720911C0454
:102E300030911D04829FA001839F500D929F500DE1
:102E4000112470E060E080913704909138040C9474
:102E50004C230E943E23FB0101900020E9F73197AB
:102E6000AF01461B570BDC01ED91FC910280F38111
:102E7000E02D19948F929F92AF92BF92CF92DF92E2
:102E8000EF92FF920F931F93CF93DF93CDB7DEB7EF
:102E9000A1970FB6F894DEBF0FBECDBF6C01990F9E
:102EA000EE08FF08F7FE43C06DE288E194E00E945F
:102EB000AC0D8C0122273327A9012C193D094E099D
:102EC0005F0919A2CE0181967C019AE0892E912C8E
:102ED000A12CB12CCA01B901A50194010E94EF20D7
:102EE000605DF70162937F012115310541055105B0
:102EF00089F790E080E0309729F0BF0188E194E005
:102F00000E942B17800F911FA1960FB6F894DEBF79
:102F10000FBECDBFDF91CF911F910F91FF90EF902A
:102F2000DF90CF90BF90AF909F908F900895A701B2
:102F3000960119A28E010F5D1F4F8AE0C82ED12C79
:102F4000E12CF12CCA01B901A70196010E94EF20E2
:102F5000605DF80162938F0121153105410551052E
:102F600089F790E080E0309779F2BF0188E194E042
:102F70000E942B17C9CFDF92EF92FF920F931F93FE
:102F8000CF93DF93C1E0D0E0D0932B04C0932A0409
:102F9000D0932904C09328040E94091781E08093EC
:102FA0002C0480932D04D0932B04C0932A04D09337
:102FB0002904C0932804109225041092240410922E
:102FC0002704109226044091160450911704609132
:102FD00012047091130488E194E00E943D0A8091EC
:102FE0003D0390913E030E943A17109225041092DF
:102FF00024048AE090E090932704809326046DE4F3
:1030000072E088E194E00E942B1780913B0390913D
:103010003C030E943A17109225041092240484E184
:1030200090E09093270480932604409110045091DF
:10303000110460910C0470910D0488E194E00E94E9
:103040003D0A80913303909134030E943A17809196
:10305000350490913604892B09F498C020914D04D1
:1030600030914E0440914F045091500460E074E25E
:1030700084EF90E00E94EF2020513109410951096D
:1030800056954795379527952093B80065E08CE9CC
:1030900091E00E94991560911C04615088E194E0D0
:1030A0000E944E1620911E0430911F04C9010796FC
:1030B00097FD079633E0959587953A95E1F720912E
:1030C0001C0430911D04829F8001839F100D929FEC
:1030D000100D1124C0913704D0913804809135042B
:1030E000909136040C0F1D1F009709F494C0209195
:1030F000390431E030936B0320936A031092690323
:1031000010926803DC01ED91FC910190F081E02DBB
:1031100060E41995EE24E394F12CDD24D39480919E
:103120003504909136040C171D0709F446C0B0E22F
:10313000EB16F104D8F00E94B214809135049091FE
:10314000360420913904D0926B0320936A031092C5
:10315000690310926803DC01ED91FC910190F0810C
:10316000E02D60E41995EE24E394F12C8091350470
:10317000909136046991DC01ED91FC910190F08110
:10318000E02D1995BFEFEB1AFB0AC9CF80913304EC
:1031900090913404892B31F080915604909157041A
:1031A0000E94C313E0914704F091480490818091FC
:1031B0004C0480958923808369CF0E94B21480914A
:1031C000350490913604892B09F466C0209151048E
:1031D00030915204409153045091540460E074E2E1
:1031E00084EF90E00E94EF202051310941095109FC
:1031F00056954795379527952093B80064EF71E071
:1032000080E090E0DF91CF911F910F91FF90EF90C0
:10321000DF900C94C409E0914504F091460480814C
:1032200090914B04892B80830C171D0741F28991E3
:103230002091330430913404232B19F00E94BC13E5
:10324000F3CF28E030E040E8E0914104F0914204FF
:1032500090914904582F5423D9F05081952B908395
:10326000E0914304F0914404908150914A04952BDD
:103270009083E0914304F0914404508190914A047A
:10328000909595239083469521503109E9F6CCCF4E
:10329000508190959523E3CFE0914704F091480445
:1032A000808190914C04892B8083A8CF85ED8093F9
:1032B000BC008091B9029091BA02A091BB02B0917A
:1032C000BC020796A11DB11D23E0B695A795979561
:1032D00087952A95D1F72091BC0024FD03C0109258
:1032E000020308954091B9025091BA026091BB0265
:1032F0007091BC02452B462B472B69F30097A10523
:10330000B10541F02AE22A95F1F700C00197A10921
:10331000B109E1CF8091B8020C940C141F920F9266
:103320000FB60F9211242F933F938F939F93AF93D8
:10333000BF938091400390914103A0914203B091CB
:10334000430330913F0323E0230F2D3758F50196B7
:10335000A11DB11D20933F0380934003909341032F
:10336000A0934203B093430380914403909145039B
:10337000A0914603B09147030196A11DB11D809312
:10338000440390934503A0934603B0934703BF9132
:10339000AF919F918F913F912F910F900FBE0F9002
:1033A0001F90189526E8230F0296A11DB11DD2CFBC
:1033B0001F920F920FB60F9211240BB60F922F93FC
:1033C0003F934F935F936F937F938F939F93AF93AD
:1033D000BF93EF93FF9380915C0390915D03A09165
:1033E0005E03B0915F03892B8A2B8B2BE1F19091C7
:1033F0004B03E0914C03F0914D038081892780833A
:1034000080915C0390915D03A0915E03B0915F0396
:10341000181619061A061B069CF480915C039091FD
:103420005D03A0915E03B0915F030197A109B1090B
:1034300080935C0390935D03A0935E03B0935F035E
:10344000FF91EF91BF91AF919F918F917F916F917C
:103450005F914F913F912F910F900BBE0F900FBE38
:103460000F901F901895809100020E94F809E8CFF4
:103470001F920F920FB60F9211240BB60F922F933B
:103480003F934F935F936F937F938F939F93AF93EC
:10349000BF93EF93FF938CE693E00E94B10AFF91F4
:1034A000EF91BF91AF919F918F917F916F915F91BC
:1034B0004F913F912F910F900BBE0F900FBE0F9029
:1034C0001F9018951F920F920FB60F9211240BB6F2
:1034D0000F922F938F939F93EF93FF93E0917C0331
:1034E000F0917D038081E0918203F091830382FD5E
:1034F0001DC09081809185038F5F8F73209186031B
:10350000821741F0E0918503F0E0E459FC4F958F7C
:1035100080938503FF91EF919F918F912F910F9051
:103520000BBE0F900FBE0F901F9018958081F2CFA9
:103530001F920F920FB60F9211240BB60F922F937A
:103540003F934F935F936F937F938F939F93AF932B
:10355000BF93EF93FF938091B900887F803609F481
:103560004DC008F040C0883209F4A9C028F5803168
:1035700009F49DC0C8F4882309F4FBC0883009F41D
:1035800096C0FF91EF91BF91AF919F918F917F91E5
:103590006F915F914F913F912F910F900BBE0F90C4
:1035A0000FBE0F901F901895883109F488C08032A3
:1035B00041F78093010314C0803409F49DC040F4A6
:1035C0008033B9F38833E9F68093010385ECB0C00A
:1035D000803509F485C0883509F496C0883489F6A9
:1035E0000E945619CECF883909F48CC038F5883737
:1035F00029F050F4883611F0803719F683E0809373
:1036000002031092000357C0883809F47BC0803948
:1036100019F0803809F0B5CF80910003803208F0AE
:1036200071C0E091000381E08E0F809300038091D0
:10363000BB00F0E0E052FD4F80833DC0803B39F09D
:10364000E0F4803A09F479C0883A09F09ACF84E02E
:10365000809302031092DF021092DE02E0912B03AE
:10366000F0912C0319958091DE0281110FC081E049
:103670008093DE021092BE0209C0803C09F4A6CFFE
:10368000883C09F4A3CF883B09F07BCFE091DF02AF
:1036900081E08E0F8093DF02F0E0E254FD4F8081E5
:1036A0008093BB009091DF028091DE0229C080915F
:1036B00027038093BB0085EC8093BC0062CF909180
:1036C000260380912503981758F5E091260381E0A1
:1036D0008E0F80932603F0E0EB5FFC4F8081E9CFF3
:1036E000E091260381E08E0F809326038091BB003A
:1036F000F0E0EB5FFC4F80839091260380912503DF
:103700009817C8F285E8D8CFE091260381E08E0FA4
:10371000809326038091BB00F0E0EB5FFC4F808339
:103720008091040381115CCF81E08093030384EADC
:103730008093BC001092020324CF85EC8093BC00E0
:103740001092020380910003803230F4E091000374
:10375000F0E0E052FD4F10826091000370E0E091D4
:103760002903F0912A0380EE92E01995109200034C
:1037700008CF1092010334CFEF92FF920F931F9363
:10378000CF93DF93EC017B01198218821B821A828E
:103790001D821C82FB0101900020E9F731978F0107
:1037A000061B170BB8016F5F7F4F90E080E00E940F
:1037B0005D220097B9F0998388831B830A832C814B
:1037C0003D81232B11F4FC0110821D830C83B70172
:1037D00088819981DF91CF911F910F91FF90EF9098
:1037E0000C94532388819981009711F00E94D42171
:1037F000198218821D821C821B821A82DF91CF914E
:103800001F910F91FF90EF900895CF93DF93ECE617
:10381000F3E01382128288EE93E0A0E0B0E08483AC
:103820009583A683B78383E192E09183808385ECBF
:1038300090E09587848784EC90E09787868780EC7A
:1038400090E0918B808B81EC90E0938B828B82EC6B
:1038500090E0958B848B86EC90E0978B868B118E15
:10386000128E138E148EE8E1F4E01382128220E8A7
:1038700030E03583248380E490E09783868331872A
:10388000208793878287168A158614861786168660
:1038900081E0858B848B2FEF3FEF338B228B318B35
:1038A000208B878B108E128E118E85E292E0918391
:1038B0008083148E138E168E158E10A2178E8CE1B7
:1038C00084A38DE185A38EE186A38FE187A380E2A7
:1038D00080A780E586AF17AE6AE572E082E194E0EA
:1038E0000E94BC1B67E672E08CE094E00E94BC1B67
:1038F000C9E0D4E08BE088838AE08A8389E0898309
:1039000061E08AE00E94430761E088810E944307EA
:1039100060E089810E94430761E08A81DF91CF9155
:103920000C941507789484B5826084BD84B5816059
:1039300084BD85B5826085BD85B5816085BD80917A
:103940006E00816080936E001092810080918100F2
:1039500082608093810080918100816080938100EA
:10396000809180008160809380008091B1008460AC
:103970008093B1008091B00081608093B00080910D
:10398000910082608093910080919100816080938A
:103990009100809190008160809390008091A100BF
:1039A00082608093A1008091A10081608093A1003A
:1039B0008091A00081608093A000809121018260AD
:1039C0008093210180912101816080932101809168
:1039D000200181608093200180917A00846080932F
:1039E0007A0080917A00826080937A0080917A00D8
:1039F000816080937A0080917A00806880937A0059
:103A00001092C100E0917C03F0917D0382E08083FD
:103A1000E0917803F09179031082E0917A03F091BC
:103A20007B038FEC808310928403E0918003F091FC
:103A3000810386E08083E0917E03F0917F038081A3
:103A400080618083E0917E03F0917F0380818860B4
:103A50008083E0917E03F0917F0380818068808382
:103A6000E0917E03F0917F0380818F7D8083809140
:103A7000370490913804892B11F10E940917209185
:103A80001E0430911F0480911C0490911D0421326A
:103A900031050CF04AC0B9016052710977FF02C0CC
:103AA0006F5F7F4F759567958357910997FD0196D5
:103AB00000E210E023E730E043EC56E049C02091FB
:103AC0001E0430911F04C901079697FD0796B3E0C5
:103AD00095958795BA95E1F720911C0430911D04C6
:103AE000AC01429FC001439F900D529F900D112445
:103AF0000E9438219093380480933704892B09F071
:103B0000BCCFC3E6DBE0FE016491662339F08CE6AE
:103B100093E00E94D30A2196892BA9F764E772E00B
:103B20008CE693E00E942B17FFCFB9016054710916
:103B300077FF02C06F5F7F4F75956795825591093A
:103B400097FD019600E410E022E530E043EA58E0FA
:103B5000959587950E94581082E080933A04809151
:103B6000350490913604892B09F4EAC180911E0432
:103B700090911F04809709F0E1C18CE38093390490
:103B800010922E0310922D03109269031092680375
:103B90000E94EE1386EF99E090932C0380932B0301
:103BA00087EF99E090932A03809329038091400442
:103BB00087FD1EC061E00E94430761E080914004E0
:103BC0000E94150761E070E080E090E00E94C40967
:103BD00060E0809140040E9415076AE070E080E098
:103BE00090E00E94C40961E0809140040E941507A2
:103BF0008091350490913604892B09F460C220919C
:103C00004D0430914E0440914F045091500460E0B7
:103C100074E284EF90E00E94EF20205131094109C5
:103C2000510956954795379527952093B80064E03C
:103C30008FEB96E00E94991560911E04615088E117
:103C400094E00E944E1664E08BEB96E00E9499157A
:103C500080913A0460E1813009F064E188E194E008
:103C60000E944E1664E087EB96E00E9499158FE85B
:103C70008093550480911C0490911D048038910517
:103C800009F036C280911E0490911F048034910582
:103C900009F03EC280913A04813009F027C28FE9D1
:103CA00080935504C2E16AED88E194E00E944E16CB
:103CB0006C2F88E194E00E944E1661E888E194E060
:103CC0000E944E166091550488E194E00E944E16C1
:103CD00069ED88E194E00E944E1680913A0462E218
:103CE000813009F061EF88E194E00E944E1666E0B1
:103CF00081EB96E00E9499158091350490913604ED
:103D0000892B09F409C22091510430915204409149
:103D100053045091540460E074E284EF90E00E94F8
:103D2000EF202051310941095109569547953795A2
:103D300027952093B800C7E0D2E01881229661E071
:103D4000812F0E94430761E0812F0E941507F2E056
:103D5000CF30DF0791F760E084E00E94430760E026
:103D600087E00E94430760E08BE00E94430760E029
:103D700089E00E94430760E08BE00E94430760E017
:103D800082E00E94430760E083E00E94430760E016
:103D900084E00E94430760E085E00E94430760E002
:103DA00086E00E94430760E087E00E9443070E948C
:103DB000091782E00E94EC069093300380932F0352
:103DC00085E00E94EC06909338038093370364EFFC
:103DD00071E080E090E00E94C40987E00E94EC0658
:103DE000892BB9F410923E0310923D0310923C03CC
:103DF00010923B030E94BB178CE291E00E94740773
:103E000068EC70E080E090E00E94C40988E00E94C5
:103E1000F80985E00E94EC06EC0190933A03809348
:103E200039038091370390913803C817D90721F1DE
:103E300086E00E94EC0620913D0330913E03C817B6
:103E4000D90709F473C1265F3F4F30933E03209397
:103E50003D0330933C0320933B0388E592E00E94AE
:103E6000740768EC70E080E090E00E94C40988E08C
:103E70000E94F8090E94BB178091390390913A0380
:103E8000909338038093370384E00E94EC06892BDB
:103E9000B9F4109236031092350310923403109245
:103EA00033030E94BB1780E991E00E9474076CE223
:103EB00071E080E090E00E94C40988E00E94F80967
:103EC00082E00E94EC06EC01909332038093310370
:103ED00080912F0390913003C817D90721F183E017
:103EE0000E94EC062091350330913603C817D9079C
:103EF00009F439C1265F3F4F3093360320933503D1
:103F000030933403209333038CEB92E00E947407C8
:103F10006CE271E080E090E00E94C40988E00E94B9
:103F2000F8090E94BB17809131039091320390935E
:103F3000300380932F030E94400B4FCF8DE31ECEA2
:103F400061E080913E040E94430761E080913F045C
:103F50000E94430780913E04082E000C990BFC013F
:103F6000E95AF34FE491F0E0EE0FFF1FE35CF34FEB
:103F7000259134913093460420934504FC01E95087
:103F8000F44FE491E0934B0480913F04082E000C21
:103F9000990BFC01E95AF34FE491F0E0EE0FFF1F9B
:103FA000E35CF34FA591B491B0934804A093470408
:103FB000FC01E950F44FE491E0934C048C91E82B20
:103FC000EC938091330490913404892B09F434C02C
:103FD000CFB7F89480912803811127C0ECE8FCE06A
:103FE0008491ECE2FCE09491E82FF0E0EE0FFF1FEB
:103FF000E358F44FA591B491EC91E92321F461E0E9
:1040000085E30E94150761E085E30E9443078CB5B4
:1040100080618CBD8CB580648CBD61E084E30E94BE
:10402000430761E083E30E944307809128038F5F89
:1040300080932803CFBFBACD61E080913C040E94F9
:10404000430761E080913D040E94430780913C0456
:10405000082E000C990BFC01E95AF34FE491F0E0B3
:10406000EE0FFF1FE35CF34F259134913093420430
:1040700020934104FC01E950F44FE491E09349049A
:1040800080913D04082E000C990BFC01E95AF34F76
:10409000E491F0E0EE0FFF1FE35CF34FA591B491C4
:1040A000B0934404A0934304FC01E950F44FE4911D
:1040B000E0934A048C91E095E823EC9377CD8091CE
:1040C000330490913404892B31F0809156049091FF
:1040D00057040E94C313E0914704F0914804908173
:1040E00080914C04809589238083A1CD8FECD8CD1D
:1040F0008036910569F480911E0490911F044097C9
:1041000039F480913A04813029F480E18093550498
:10411000C2E0C9CD8FEAFACFE0914704F09148049C
:10412000808190914C04892B808305CE1216130652
:104130006CF42A50310930933E0320933D033093B1
:104140003C0320933B0384EF91E089CE10923E0321
:1041500010923D0388EE93E00E94740764EF71E0D3
:1041600080E090E082CE121613066CF42A503109DA
:104170003093360320933503309334032093330375
:1041800088E592E0C3CE109236031092350384E89E
:1041900093E00E94740764EF71E080E090E0BCCE91
:1041A00080910C0490910D04009711F00E94D4218D
:1041B0008091120490911304009711F00E94D42171
:1041C00085E292E09093190480931804809137045B
:1041D00090913804009711F00C94D4210895A1E235
:1041E0001A2EAA1BBB1BFD010DC0AA1FBB1FEE1F71
:1041F000FF1FA217B307E407F50720F0A21BB30BBC
:10420000E40BF50B661F771F881F991F1A9469F737
:1042100060957095809590959B01AC01BD01CF0193
:104220000895052E97FB1EF400940E94282157FD47
:1042300007D00E94EF2007FC03D04EF40C942821F5
:1042400050954095309521953F4F4F4F5F4F0895C2
:1042500090958095709561957F4F8F4F9F4F0895F2
:10426000EE0FFF1F881F8BBF0790F691E02D19946A
:104270000F931F93CF93DF938230910510F482E068
:1042800090E0E0915A04F0915B0430E020E0B0E06F
:10429000A0E0309799F42115310509F44AC0281B94
:1042A000390B24303105D8F58A819B816115710560
:1042B00089F1FB0193838283FE0111C0408151810A
:1042C0000281138148175907E0F04817590799F4FC
:1042D000109761F012960C93129713961C933296D6
:1042E000CF01DF91CF911F910F91089500935A0450
:1042F00010935B04F4CF2115310551F04217530799
:1043000038F0A901DB019A01BD01DF01F801C1CF3D
:10431000EF01F9CF90935B0480935A04CDCFFE0157
:10432000E20FF31F8193919322503109398328833F
:10433000D7CF2091580430915904232B41F4209178
:1043400003023091040230935904209358042091C1
:104350000102309102022115310541F42DB73EB71B
:104360004091050250910602241B350BE091580440
:10437000F0915904E217F307A0F42E1B3F0B281706
:10438000390778F0AC014E5F5F4F2417350748F0CE
:104390004E0F5F1F5093590440935804819391939B
:1043A0009FCFF0E0E0E09CCFCF93DF930097E9F060
:1043B000FC01329713821282A0915A04B0915B04DF
:1043C000ED0130E020E01097A1F420813181820FCF
:1043D000931F20915804309159042817390709F088
:1043E00061C0F0935904E0935804DF91CF91089590
:1043F000EA01CE17DF07E8F54A815B819E0141158E
:104400005105B1F7E901FB83EA8349915991C40F42
:10441000D51FEC17FD0761F4808191810296840F0E
:10442000951FE90199838883828193819B838A8385
:10443000F0E0E0E012968D919C9113970097B9F50A
:104440002D913C911197CD010296820F931F2091DF
:104450005804309159042817390739F6309751F527
:1044600010925B0410925A04B0935904A09358041C
:10447000BCCFD383C28340815181840F951FC8175D
:10448000D90761F44E5F5F4F88819981480F591FAA
:10449000518340838A819B819383828321153105D7
:1044A00009F0B0CFF0935B04E0935A049ECFFD0176
:1044B000DC01C0CF13821282D7CF4F925F926F92EE
:1044C0007F928F929F92AF92BF92CF92DF92EF92A4
:1044D000FF920F931F93CF93DF938C01009799F472
:1044E000CB01DF91CF911F910F91FF90EF90DF9063
:1044F000CF90BF90AF909F908F907F906F905F9084
:104500004F900C943821FC01E60FF71F9C012250BC
:104510003109E217F30708F4AEC0D901CD91DC915F
:104520001197C617D70720F1C530D10578F0CE0115
:1045300004978617970750F0C61BD70B2297C19395
:10454000D1936D937C93CF010E94D421C801DF9158
:10455000CF911F910F91FF90EF90DF90CF90BF9080
:10456000AF909F908F907F906F905F904F90089545
:104570005B01AC1ABD0A4C018C0E9D1EA0915A0421
:10458000B0915B04512C412CF12CE12C109731F5AA
:1045900080915804909159048815990509F05CC0E0
:1045A0004616570608F058C0809101029091020209
:1045B000009741F48DB79EB74091050250910602D5
:1045C000841B950BE817F90708F055C0F0935904C0
:1045D000E0935804F90171836083B8CF8D919C9169
:1045E000119712966C90129713967C901397A815BA
:1045F000B90559F56C0142E0C40ED11CCA14DB04A4
:1046000020F1AC014A195B09DA011296159780F086
:104610006282738251834083D9016D937C93E1144C
:10462000F10471F0D7011396FC93EE9312978ECF9D
:1046300022968C0F9D1FF90191838083F301EFCFA8
:10464000F0935B04E0935A0481CF4816590608F4AE
:104650002C017D01D3019ACFCB010E9438217C012E
:10466000009749F0AE01B8010E944323C8010E949F
:10467000D42187016BCF10E000E068CF81E090E0AB
:10468000F8940C945A23FB01DC0102C001900D92B6
:1046900041505040D8F70895DC0101C06D9341505E
:1046A0005040E0F70895FB01DC0101900D920020DD
:1046B000E1F7089516E0C0E5D6E000E006C0802FDF
:1046C000FE010E9430212196011DC135D10780E0F5
:1046D0000807A9F7F894FFCFFF00005C04800016DC
:1046E0000017001800190000000000D30A3D0A6AF4
:1046F0000A200B9B0A790A8D0A00000000AC0D3DD0
:104700000A0617C6130C13840651102910451039D8
:1047100010B9108406720BB0167C12C512720F55B8
:104720000FDD0E7E0E5661726961626C652020207D
:104730003A0054656D70657261747572653A005423
:10474000696D65202020202020203A000D0A0000FD
:10E000000D9489F10D94B2F10D94B2F10D94B2F129
:10E010000D94B2F10D94B2F10D94B2F10D94B2F1F0
:10E020000D94B2F10D94B2F10D94B2F10D94B2F1E0
:10E030000D94B2F10D94B2F10D94B2F10D94B2F1D0
:10E040000D94B2F10D94B2F10D94B2F10D94B2F1C0
:10E050000D94B2F10D94B2F10D94B2F10D94B2F1B0
:10E060000D94B2F10D94B2F10D94B2F10D94B2F1A0
:10E070000D94B2F10D94B2F10D94B2F10D94B2F190
:10E080000D94B2F10D94B2F10D94B2F10D94B2F180
:10E090000D94B2F10D94B2F10D94B2F10D94B2F170
:10E0A0000D94B2F10D94B2F10D94B2F10D94B2F160
:10E0B0000D94B2F10D94B2F10D94B2F10D94B2F150
:10E0C0000D94B2F10D94B2F10D94B2F10D94B2F140
:10E0D0000D94B2F10D94B2F10D94B2F10D94B2F130
:10E0E0000D94B2F141546D656761323536300041AF
:10E0F000726475696E6F206578706C6F72657220DE
:10E1000073746B3530305632206279204D4C530099
:10E11000426F6F746C6F616465723E004875683F52
:10E1200000436F6D70696C6564206F6E203D200048
:10E130004350552054797065202020203D20005FF9
:10E140005F4156525F415243485F5F3D2000415658
:10E1500052204C696243205665723D20004743437C
:10E160002056657273696F6E203D20004350552024
:10E1700049442020202020203D20004C6F7720663D
:10E18000757365202020203D20004869676820665F
:10E190007573652020203D200045787420667573D6
:10E1A00065202020203D20004C6F636B2066757336
:10E1B000652020203D20004D617220203720323024
:10E1C000313300312E362E3800342E332E350056A2
:10E1D00023202020414444522020206F7020636F70
:10E1E00064652020202020696E73747275637469E1
:10E1F0006F6E2061646472202020496E74657272B3
:10E20000757074006E6F20766563746F7200726A49
:10E210006D702020006A6D70200057686174207056
:10E220006F72743A00506F7274206E6F7420737541
:10E2300070706F72746564004D7573742062652030
:10E2400061206C6574746572002000577269747483
:10E25000696E672045450052656164696E672045B7
:10E26000450045452065727220636E743D00504F35
:10E27000525400303D5A65726F2061646472003FF1
:10E280003D43505520737461747300403D454550C3
:10E29000524F4D207465737400423D426C696E6B41
:10E2A000204C454400453D44756D70204545505215
:10E2B0004F4D00463D44756D7020464C415348001B
:10E2C000483D48656C70004C3D4C69737420492F83
:10E2D0004F20506F72747300513D51756974005234
:10E2E0003D44756D702052414D00563D73686F7707
:10E2F00020696E7465727275707420566563746FF0
:10E30000727300593D506F727420626C696E6B00BD
:10E310002A0011241FBECFEFD1E2DEBFCDBF01E046
:10E320000CBF12E0A0E0B2E0EEE1FDEF03E00BBFB6
:10E3300002C007900D92A030B107D9F712E0A0E01B
:10E34000B2E001C01D92AE30B107E1F70F9460F367
:10E350000D948DFE01E20EBF0FEF0DBF11241FBE05
:10E360000D9460F30D9400F020E030E040ED57E0B4
:10E3700005C0FA013197F1F72F5F3F4F2817390792
:10E38000C0F308959C01260F311DC901A0E0B0E043
:10E390002F5F3F4FABBFFC018791882361F08093D3
:10E3A000C6008091C00086FFFCCF8091C0008064D1
:10E3B0008093C000EACF08958DE08093C6008091DD
:10E3C000C00086FFFCCF8091C00080648093C000B5
:10E3D0008AE08093C6008091C00086FFFCCF8091C8
:10E3E000C00080648093C00008950F94C2F10F9420
:10E3F000DCF10895FC019081992359F09093C600B7
:10E400008091C00086FFFCCF8091C0008064809323
:10E41000C0003196992379F70895282F982F929567
:10E420009F70892F805D8A3308F0895F8093C600D2
:10E430008091C00086FFFCCF8091C00080648093F3
:10E44000C000822F8F70982F905D9A3308F0995FEB
:10E450009093C6008091C00086FFFCCF8091C000E1
:10E4600080648093C00008959C01FB01853691056E
:10E470001CF46330710594F0C90164E670E00F94F8
:10E480002EFE605D7F4F6093C6008091C00086FFC6
:10E49000FCCF8091C00080648093C0002B30310598
:10E4A00014F43297B4F0C90164E670E00F942EFEC4
:10E4B0006AE070E00F942EFE605D7F4F6093C600AF
:10E4C0008091C00086FFFCCF8091C0008064809363
:10E4D000C000C9016AE070E00F942EFEC0968093E0
:10E4E000C6008091C00086FFFCCF8091C000806490
:10E4F0008093C00008951F93182F8EE692EE60E07F
:10E500000F94C2F11093C6008091C00086FFFCCF2B
:10E510008091C00080648093C0000F94DCF11F9153
:10E5200008952F923F924F925F926F927F928F92B7
:10E530009F92AF92BF92CF92DF92EF92FF920F9392
:10E540001F93DF93CF93CDB7DEB762970FB6F894E2
:10E55000DEBF0FBECDBF382E622ECA01DB015C01CB
:10E560006D01772420E2222E2E010894411C511CBB
:10E570008BC081E0A81680E0B80681E0C80680E084
:10E58000D80628F0C601AA27BB270F940DF2BB2797
:10E59000AD2D9C2D8B2D0F940DF28A2D0F940DF225
:10E5A0002092C6008091C00086FFFCCF8091C00001
:10E5B00080648093C0009DE29093C6008091C0006B
:10E5C00086FFFCCF8091C00080648093C0002092C1
:10E5D000C6008091C00086FFFCCF8091C00080649F
:10E5E0008093C00019828601750188249924A1E0D6
:10E5F0003A1651F03A1620F0B2E03B1661F409C029
:10E600000BBFF701779007C0C7010F9477FE782EF4
:10E6100002C0F7017080872D0F940DF22092C60082
:10E620008091C00086FFFCCF8091C0008064809301
:10E63000C000872D8052F401EF70F0708F3520F408
:10E64000E40DF51D708204C0E40DF51D8EE280839B
:10E650000894E11CF11C011D111D0894811C911CE2
:10E6600090E18916910409F0C2CF80E190E0A0E02A
:10E67000B0E0A80EB91ECA1EDB1E198AC2010F9493
:10E68000FAF10F94DCF16A94662009F072CF629679
:10E690000FB6F894DEBF0FBECDBFCF91DF911F91B3
:10E6A0000F91FF90EF90DF90CF90BF90AF909F9031
:10E6B0008F907F906F905F904F903F902F90089534
:10E6C0002F923F924F925F926F927F928F929F9282
:10E6D000AF92BF92CF92DF92EF92FF920F931F9370
:10E6E000DF93CF93CDB7DEB7CD53D1400FB6F894BB
:10E6F000DEBF0FBECDBF01E20EBF0FEF0DBF94B75F
:10E70000F894A89514BE80916000886180936000A1
:10E7100010926000789493FF05C0E0910002F091A0
:10E7200001021995279A2F9A8091C00082608093E8
:10E73000C00080E18093C40088E18093C1000000A4
:10E74000EE24FF24870144E0A42EB12CCC24DD2448
:10E7500024C0C5010197F1F70894E11CF11C011DCB
:10E76000111D21E2E2162EE4F20620E0020720E06D
:10E77000120718F031E0C32ED12CC801B70127ECE5
:10E780003BE140E050E00F9441FE611571058105C9
:10E79000910519F485B1805885B98091C00087FD35
:10E7A00003C0C114D104A9F2A6014F5F5F4FC25E3E
:10E7B000DE4F59834883CE51D140C25EDE4F8881FF
:10E7C0009981CE51D140019711F00D9410FEC05D9A
:10E7D000DE4F19821882C053D14060E0C15DDE4F28
:10E7E0001882CF52D14088249924C35DDE4F19820C
:10E7F0001882CD52D140C05EDE4F188219821A8233
:10E800001B82C052D140CE5CDE4F188219821A8220
:10E810001B82C253D140EE24FF2487010BBFF701B6
:10E8200007911691C45CDE4F19830883CC53D14005
:10E830000D940BFEC25EDE4F28813981CE51D1404E
:10E840002130310509F52091C600C25EDE4F1982E4
:10E850001882CE51D14022C02F5F3F4F4F4F5F4FA4
:10E86000213082E138078AE7480780E0580780F0C6
:10E87000C45CDE4FE881F981CC53D140EF5FFF4F9C
:10E8800019F0EE27FF27099420E030E040E050E047
:10E890008091C00087FFE0CF2091C600C35DDE4FAE
:10E8A00048815981CD52D1404F5F5F4FC35DDE4FEC
:10E8B00059834883CD52D140213209F063C64A3092
:10E8C000510508F05FC60894811C911C53E0851621
:10E8D000910409F059C600E010E018C081E280936D
:10E8E000C6008091C00086FFFCCF8091C00080648C
:10E8F0008093C0002F5F3F4F2931310579F70F9486
:10E90000DCF10F5F1F4F0530110519F020E030E0FA
:10E91000E5CF10920A0210920B0210920C02109294
:10E920000D02109206021092070210920802109235
:10E930000902109202021092030210920402109235
:10E9400005028FEE90EE60E00F94F5F180E191EE1C
:10E9500060E00F94C2F18091C00087FFFCCF9091DE
:10E96000C600903608F09F759032B8F09093C600BC
:10E970008091C00086FFFCCF8091C00080648093AE
:10E98000C000A0E2A093C6008091C00086FFFCCF2B
:10E990008091C00080648093C000983409F4D7C18E
:10E9A0009934B8F4923409F459C1933458F490333B
:10E9B00019F1903308F4E3C59F33A1F1903409F0C5
:10E9C000DEC5BDC0953409F470C1963409F0D7C5D1
:10E9D00098C1923509F42BC2933538F49C3409F46C
:10E9E000F5C1913509F0CBC518C2963509F445C279
:10E9F000993509F0C4C567C483E792EE62E00F94CD
:10EA0000F5F110920602109207021092080210927D
:10EA1000090210920A0210920B0210920C0210923C
:10EA20000D0213C18FE792EE62E00F94F5F18FEEC5
:10EA300090EE60E00F94F5F181E291EE60E00F94CA
:10EA4000C2F187EB91EE60E00F94F5F180E391EE77
:10EA500060E00F94C2F184EE90EE60E00F94F5F167
:10EA60008FE391EE60E00F94C2F186E090E061E008
:10EA700070E00F9434F20F94DCF18DE591EE60E0DC
:10EA80000F94C2F189EC91EE60E00F94F5F18EE401
:10EA900091EE60E00F94C2F183EC91EE60E00F9490
:10EAA000F5F18CE691EE60E00F94C2F18EE10F94E7
:10EAB0000DF288E90F940DF281E00F940DF20F949E
:10EAC000DCF18BE791EE60E00F94C2F119E0E0E039
:10EAD000F0E010935700E4918E2F0F940DF20F94F5
:10EAE000DCF18AE891EE60E00F94C2F1E3E0F0E03F
:10EAF00010935700E4918E2F0F940DF20F94DCF1D8
:10EB000089E991EE60E00F94C2F1E2E0F0E0109349
:10EB10005700E4918E2F0F940DF20F94DCF188EAE8
:10EB200091EE60E00F94C2F1E1E0F0E01093570045
:10EB30001491812F0F940DF20F94DCF107CF8BE825
:10EB400092EE62E00F94F5F18BE492EE60E00F94A8
:10EB5000F5F10F94DCF100E010E019C0C8016F2D51
:10EB60000F947FFEFF2031F489E492EE60E00F9471
:10EB7000C2F10BC0F092C6008091C00086FFFCCFAE
:10EB80008091C00080648093C0000F5F1F4FC80158
:10EB900081519F41A0E0B0E0ABBFFC01F790BAE229
:10EBA000FB1621F0E2E000301E07C1F60F94DCF105
:10EBB0000F94DCF187E592EE60E00F94F5F10F948D
:10EBC000DCF1CC24DD2400E010E01EC0C8010F946D
:10EBD00077FEF82E882331F489E492EE60E00F94FA
:10EBE000C2F10BC08093C6008091C00086FFFCCFAD
:10EBF0008091C00080648093C000FE1419F00894D6
:10EC0000C11CD11C0F5F1F4FC80181519F41A0E063
:10EC1000B0E0ABBFFC01E790FAE2EF1621F022E092
:10EC20000030120799F60F94DCF10F94DCF182E6C4
:10EC300092EE60E00F94C2F1C60161E070E00F94C3
:10EC400034F20F94DCF10F94DCF110920202109276
:10EC50000302109204021092050278CE89E992EE26
:10EC600062E00F94F5F1279A2F9A16C02F9880E052
:10EC700090E0E0EDF7E03197F1F7019684369105E9
:10EC8000C1F72F9A80E090E0E0EDF7E03197F1F7DF
:10EC9000019684369105C1F78091C00087FFE6CFC9
:10ECA0008091C00087FFFCCF64C485EA92EE62E0E9
:10ECB0000F94F5F140910202509103026091040219
:10ECC0007091050281E020E10F9491F2809102029F
:10ECD00090910302A0910402B091050280509F4FD1
:10ECE000AF4FBF4F8093020290930302A0930402A0
:10ECF000B093050280509041A040B04008F426CE69
:10ED0000A4CF83EB92EE62E00F94F5F140910602FE
:10ED100050910702609108027091090280E020E1A1
:10ED20000F9491F28091060290910702A09108023F
:10ED3000B091090280509F4FAF4FBF4F80930602A2
:10ED400090930702A0930802B0930902FFCD80ECD4
:10ED500092EE62E00F94F5F183E792EE60E00F949B
:10ED6000F5F18FE792EE60E00F94F5F18BE892EE0B
:10ED700060E00F94F5F189E992EE60E00F94F5F10F
:10ED800085EA92EE60E00F94F5F183EB92EE60E09D
:10ED90000F94F5F180EC92EE60E00F94F5F187ECC2
:10EDA00092EE60E00F94F5F188ED92EE60E00F9442
:10EDB000F5F18FED92EE60E00F94F5F18AEE92EEB0
:10EDC00060E00F94F5F183E093EEBDCD87EC92EE19
:10EDD00062E00F94F5F181E40F947BF282E40F94EA
:10EDE0007BF283E40F947BF284E40F947BF285E45E
:10EDF0000F947BF286E40F947BF287E40F947BF20E
:10EE000088E40F947BF28AE40F947BF28BE40F94F6
:10EE10007BF28CE40F947BF299CD88ED92EE62E068
:10EE20000F94F5F1772473948824992409C48FED05
:10EE300092EE62E00F94F5F140910A0250910B02BC
:10EE400060910C0270910D0282E020E10F9491F22A
:10EE500080910A0290910B02A0910C02B0910D02D8
:10EE600080509F4FAF4FBF4F80930A0290930B0289
:10EE7000A0930C02B0930D0269CD8AEE92EE62E08F
:10EE80000F94F5F184EE90EE60E00F94F5F18FECC5
:10EE900091EE60E00F94F5F1662477244301CC5D98
:10EEA000DE4F19821882C452D140D401C301B695F5
:10EEB000A79597958795CA5DDE4F88839983AA8326
:10EEC000BB83C652D140CC5DDE4FA881B981C4520C
:10EED000D1401196CC5DDE4FB983A883C452D14096
:10EEE000CD0162E070E00F9434F2B0E2B093C6005E
:10EEF0008091C00086FFFCCF8091C0008064809329
:10EF0000C000EDE2E093C6008091C00086FFFCCF18
:10EF10008091C00080648093C000F0E2F093C6004E
:10EF20008091C00086FFFCCF8091C00080648093F8
:10EF3000C000CA5DDE4FE880F9800A811B81C6529D
:10EF4000D140BB27A12F902F8F2D0F940DF2CA5DBA
:10EF5000DE4F8881C652D1400F940DF2B0E2FB2EF5
:10EF6000F092C6008091C00086FFFCCF8091C00067
:10EF700080648093C0000DE30093C6008091C000C0
:10EF800086FFFCCF8091C00080648093C00010E2B7
:10EF90001093C6008091C00086FFFCCF8091C00016
:10EFA00080648093C0008BBEF3012791C65DDE4F65
:10EFB0002883CA52D140A22EBB24CC24DD2408943D
:10EFC000611C711C811C911C8BBEF3018791282E42
:10EFD0003324442455240894611C711C811C911C09
:10EFE0008BBEF3013791C55DDE4F3883CB52D140E4
:10EFF0000894611C711C811C911C8BBEF30147910C
:10F00000C45DDE4F4883CC52D140ADEFEA2EAFEF66
:10F01000FA2EAFEF0A2FAFEF1A2F6E0C7F1C801E57
:10F02000911E142D032DF22CEE24EA0CFB1C0C1D5A
:10F030001D1D0F940DF220E22093C6008091C000A8
:10F0400086FFFCCF8091C00080648093C000C65DC5
:10F05000DE4F8881CA52D1400F940DF230E23093D6
:10F06000C6008091C00086FFFCCF8091C000806404
:10F070008093C000C45DDE4F8881CC52D1400F9494
:10F080000DF240E24093C6008091C00086FFFCCFA5
:10F090008091C00080648093C000C55DDE4F888190
:10F0A000CB52D1400F940DF250E25093C6008091A4
:10F0B000C00086FFFCCF8091C00080648093C000B8
:10F0C0008FEFE8168FEFF80680E0080780E018075A
:10F0D00031F484E092EE60E00F94C2F1DFC0D80119
:10F0E000C7018070907CA070B0708050904CA040A0
:10F0F000B040D1F52FEF3FE340E050E0E222F322B1
:10F1000004231523CA5DDE4FA880B980CA80DB8046
:10F11000C652D140AE0CBF1CC01ED11EAA0CBB1CD7
:10F12000CC1CDD1C8EE092EE60E00F94C2F1BB2798
:10F13000A12F902F8F2D0F940DF28E2D0F940DF285
:10F1400030E23093C6008091C00086FFFCCF8091F2
:10F15000C00080648093C0004EE34093C60080915D
:10F16000C00086FFFCCF87C08EE09EEFA0E0B0E03D
:10F17000E822F9220A231B239CE0E91694E9F90608
:10F1800090E0090790E0190709F088C0C45DDE4FE0
:10F19000A881CC52D140EA2EFF2400E010E0102FCD
:10F1A0000F2DFE2CEE24C55DDE4FB881CB52D14031
:10F1B000EB0EF11C011D111DD601C501817090706F
:10F1C000A070B070DC0199278827E80EF91E0A1F8D
:10F1D0001B1F20EF30E040E050E0A222B322C42207
:10F1E000D52241E1AA0CBB1CCC1CDD1C4A95D1F7F1
:10F1F000EA0CFB1C0C1D1D1D81E090E0A0E0B0E0BE
:10F20000282239224A225B2235E1220C331C441C7D
:10F21000551C3A95D1F7E20CF31C041D151D57013E
:10F220006801AA0CBB1CCC1CDD1C85E192EE60E0E1
:10F230000F94C2F1C801AA27BB270F940DF2BB2778
:10F24000A12F902F8F2D0F940DF28E2D0F940DF274
:10F2500090E29093C6008091C00086FFFCCF809121
:10F26000C00080648093C000AEE3A093C60080918C
:10F27000C00086FFFCCF8091C00080648093C000F6
:10F28000C601AA27BB270F940DF2BB27AD2D9C2DDD
:10F290008B2D0F940DF28A2D0F940DF20F94DCF14B
:10F2A000CC5DDE4FE881F981C452D140F99709F471
:10F2B0004DCBF4E0EF2EF12C012D112D6E0C7F1CA7
:10F2C000801E911EF2CD83E093EE62E00F94F5F183
:10F2D0008AE192EE60E00F94C2F18091C00087FF56
:10F2E000FCCF1091C6001F751093C6008091C0001E
:10F2F00086FFFCCF8091C00080648093C0000F9493
:10F30000DCF1812F81548A3108F036C1163409F4BA
:10F3100095C0173490F4133409F44EC0143430F40B
:10F320001134F1F0123409F01DC130C0143409F465
:10F3300059C0153409F016C16BC01A3409F4C4C0A1
:10F340001B3438F4173409F48FC0183409F00AC19B
:10F35000A1C01B3409F4D2C01C3409F003C1E8C0B9
:10F360008FEF81B90DC082B1809582B980E090E0C5
:10F37000E0EDF7E03197F1F70196883C9105C1F790
:10F380008091C00087FFEFCF12B8EFC08FEF84B934
